:020000040800F2
:10000000D81A0020C9010008A116000859100008DC
:100010009D16000807050008BB2B00080000000023
:10002000000000000000000000000000151E000895
:100030005D0E0008000000001D1B000829270008B5
:10004000E3010008E3010008E3010008E301000800
:10005000E3010008E3010008E3010008E3010008F0
:10006000E3010008E3010008E3010008E3010008E0
:10007000E3010008E3010008E3010008E3010008D0
:10008000E3010008E3010008E3010008E3010008C0
:10009000612B0008E3010008E3010008E301000808
:1000A000E3010008E3010008E3010008E3010008A0
:1000B0008D270008AD270008E3010008E3010008D0
:1000C000E3010008E3010008E3010008E301000880
:1000D000E3010008E3010008E3010008E301000870
:1000E000E3010008E30100088529000800F002F898
:1000F00000F05AF80AA090E8000C82448344AAF168
:100100000107DA4501D100F04FF8AFF2090EBAE865
:100110000F0013F0010F18BFFB1A43F0010318473B
:10012000BC5D0000DC5D00000A444FF0000C10F8DC
:10013000013B13F0070408BF10F8014B1D1108BF65
:1001400010F8015B641E05D010F8016B641E01F805
:10015000016BF9D113F0080F1EBF10F8014BAD1C55
:100160000C1B09D16D1E58BF01F801CBFAD505E073
:1001700014F8016B01F8016B6D1EF9D59142D6D3CD
:10018000704700000023002400250026103A28BFF5
:1001900078C1FBD8520728BF30C148BF0B607047F9
:1001A0001FB51FBD10B510BD00F084F81146FFF754
:1001B000F7FF03F019FA00F0A2F803B4FFF7F2FF1B
:1001C00003BC00F0A5F80000094880470948004733
:1001D000FEE7FEE7FEE7FEE7FEE7FEE7FEE7FEE7F7
:1001E000FEE7FEE704480549054A064B7047000054
:1001F0002D270008ED000008D8140020D81A002090
:10020000D8160020D81600204FF0013C50F8042BDF
:1002100051F8043B9A4221D1A2EB0C03934313EA19
:10022000CC1317D150F8042B51F8043B9A4215D146
:10023000A2EB0C03934313EACC130BD150F8042B1D
:1002400051F8043B9A4209D1A2EB0C03934313EA01
:10025000CC13DBD04FF00000704700BFD01A01BABA
:10026000B1FA81F101F0180122FA01F0CB40C1F19D
:100270002001DBB2C0B2C01A2CFA01F3D11A9143AB
:1002800011EAC311E6D1704770477047704710B547
:1002900000F008F8006810BD10B5044600F002F840
:1002A000046010BD00487047741400200048704777
:1002B000741400207546FFF7F9FFAE460500694645
:1002C000534620F00700854618B020B5FFF78AFF97
:1002D000BDE820404FF000064FF000074FF0000847
:1002E0004FF0000B21F00701AC46ACE8C009ACE8C8
:1002F000C009ACE8C009ACE8C0098D46704710B52C
:100300000446AFF300802046BDE81040FFF755BF1C
:1003100001491820ABBEFEE726000200704721B15C
:10032000826842F00102826003E0826822F00102EA
:100330008260704710B504461248844208D10121FA
:10034000401501F07DFC0021601501F079FC17E0FB
:100350000D48844208D10121001501F071FC0021F3
:10036000201501F06DFC0BE00848844208D1012102
:10037000C80301F065FC00214FF4004001F060FC6F
:1003800010BD00000024014000280140003C014055
:10039000014600208A6802F004020AB1012000E050
:1003A000002070470146C86C80B2704702460020AA
:1003B00013680B400BB1012000E00020704701469C
:1003C00000208A6802F008020AB1012000E0002043
:1003D0007047000030B502460020002350680F4CE3
:1003E00020400D790C6844EA052420435060906851
:1003F0000B4C2040D1E902542C434D7944EA45048A
:1004000020439060D06A20F470000C7C641EE4B23B
:10041000234340EA0350D06230BD0000FFFEF0FFEE
:10042000FDF7F1FFF0B504460D4600200021092D2F
:1004300011DDE068A5F10A0606EB4607072606FA75
:1004400007F18843A5F10A0606EB460603FA06F112
:100450000843E0600CE0206905EB4507072606FA33
:1004600007F1884305EB450603FA06F108432061CE
:10047000072A0FDA606B561E06EB86071F2606FA60
:1004800007F18843561E06EB860605FA06F1084377
:10049000606322E00D2A0FDA206BD61F06EB860779
:1004A0001F2606FA07F18843D61F06EB860605FAD3
:1004B00006F10843206310E0E06AA2F10D0606EBA6
:1004C00086071F2606FA07F18843A2F10D0606EB00
:1004D000860605FA06F10843E062F0BD816841F046
:1004E00008018160704721B1826842F4A0028260F5
:1004F00003E0826822F4A00282607047816841F0C4
:1005000004018160704700BFFEE70146CAB20B12CA
:1005100043EA02207047000008B50020009022E165
:100520009748008800F00F00964908700846007848
:1005300000287CD1944800689449088008460088C7
:1005400000F03000924908809048008800F4405044
:100550008E4908808C4909684BF6BF7201EA020097
:1005600080F4005080F0200040F4004141F0800110
:10057000854A11608248008800F0100090BB104648
:10058000006848F60F7108401146086000F096FDBB
:100590007D4909684BF6BF7201EA02007B49098870
:1005A00001F4805109B180F480507849098801F440
:1005B000005109B180F400507549098801F010011B
:1005C00009B180F010007249098801F0200109B1D9
:1005D00080F0200081B241F4004141F080016A4A7C
:1005E000116008BDFFE76848006880B20090BDF860
:1005F000000000F40060B0B363480068C0F30E0070
:1006000048F68F7108406049086001F085FD5E4939
:1006100009684BF6BF7201EA02005C49098801F4DF
:10062000805109B180F480505849098800E056E0B3
:1006300001F4005109B180F400505549098801F0D6
:10064000100109B180F010005149098801F0200122
:1006500009B180F0200081B241F4004141F08001F5
:10066000494A1160BDE7FFE7BDF8000000F4004013
:10067000002878D044480068C0F30E0048F68F7117
:1006800008404149086001F00DFA3F4909684BF6FE
:10069000BF7201EA02003D49098801F4805109B1A5
:1006A00080F480503949098801F4005109B180F47F
:1006B00000503749098801F0100109B180F010009D
:1006C0003349098801F0200109B180F0200081B28E
:1006D00041F4004141F080012B4A116081E7294833
:1006E00000782C4901EB8000D0F8000C80B200901B
:1006F000BDF8000000F40040C0B12248007801EBD2
:100700008000D0F8000CC0F30E0048F68F7108404E
:100710001C4909781F4A02EB8101C1F8000C1949F4
:100720000978491E1C4A52F821008047BDF8000094
:1007300000F08000B8B113480078164901EB800042
:10074000D0F8000C48F60F7108400E490978114A9C
:1007500002EB8101C1F8000C0A490978491E0F4AD1
:1007600052F82100804708484430006880B20449AC
:10077000088000F4004000287FF4D2AE00BF30E7CC
:1007800010090020DC080020005C0040F008002078
:10079000F208002000500040380900201C09002009
:1007A0000B4A02EB8001D1F8001C01F4804171B1C9
:1007B00002EB8001D1F8001C48F68F7211404CF218
:1007C00080021143024B03EB8002C2F8001C704709
:1007D000005000400B4A02EB8001D1F8001C01F0F0
:1007E000400171B102EB8001D1F8001C48F68F7214
:1007F000114048F2C0021143024B03EB8002C2F8E1
:10080000001C704700500040084A02EB8001D1F8FC
:10081000001C48F68F62114048F280021143034BDE
:1008200003EB8002C2F8001C70470000005000403B
:1008300000F0805111B10349086001E002494860AD
:1008400070470000040402400000024021B1026829
:1008500042F00102026004E002684FF6FE731A40A3
:100860000260704701684FF6FE721140016000217E
:10087000016041608160C1604B49884208D14A49AA
:100880000839496841F00F01474A083A51608AE047
:1008900045491431884208D143490839496841F033
:1008A000F001414A083A51607DE03F4928318842D1
:1008B00008D13D490839496841F470613A4A083A1B
:1008C000516070E038493C31884208D136490839D6
:1008D000496841F47041344A083A516063E0324952
:1008E0005031884208D130490839496841F47021B3
:1008F0002D4A083A516056E02B496431884208D1AC
:1009000029490839496841F47001274A083A516079
:1009100049E025497831884208D123490839496896
:1009200041F07061204A083A51603CE01F4988421A
:1009300006D1011F096841F00F01021F116032E06A
:100940001A491431884208D11849091F096841F031
:10095000F001164A121F116025E01449283188421F
:1009600008D11249091F096841F470610F4A121F2A
:10097000116018E00D493C31884208D10B49091F2C
:10098000096841F47041094A121F11600BE00749E0
:100990005031884207D10549091F096841F4702187
:1009A000024A121F1160704708000240080402400A
:1009B0000146486880B2704701460020002201F0DD
:1009C000805313B1054B1A6801E0054B1A6802EA1F
:1009D00001030BB1012000E0002070470004024039
:1009E0000000024010B50022026847F6F0739A43F7
:1009F0000C6A8B6823430C6923434C6923438C693D
:100A00002343CC6923434C6A23438C6A23431A4310
:100A10000260CB6843600B6883604B68C36010BDA5
:100A2000416070472DE9F0472848006800F1100543
:100A30002E8826480068077AD6B9042F18D1244892
:100A4000007801280FD100212248006880B2801C64
:100A5000214A42F8101030202049088000BF0020B1
:100A60001B49087003E0072710201C49088027E075
:100A7000AC88A64201D8042000E002200746B44218
:100A800000D93446A0B2A96888478046002000F00B
:100A9000A1FA8146A2B24946404602F091F8A1B2BD
:100AA000002001F06BFA2888001B28806888204409
:100AB000688030200949088000020949088000BF89
:100AC000024909680F72BDE8F0870000E0080020C5
:100AD000D8080020505C004000600040F208002070
:100AE000F00800202DE9F0413048006800F11004C2
:100AF0002688A068C0B1BEB1A588B54200D93546E8
:100B0000A8B2A168884707462088401B20806088DB
:100B100028446080002000F04DFA8046AAB2414689
:100B2000384600F0E7FF00BF208850B14FF4405036
:100B30001F4908800021084601F020FA30201D4995
:100B400008802088A188884204DB032017490968AF
:100B5000087228E02088002804DD05201349096870
:100B6000087220E02088F0B9062010490968087250
:100B700011490968886880470C480068007A08288D
:100B800006D140020A49088010200A4908800AE07C
:100B900000210A48006880B2801C094A42F81010FF
:100BA000302004490880BDE8F0810000E008002002
:100BB000F0080020F2080020E4080020505C00400B
:100BC000006000402DE9F84F9B48006845780027F9
:100BD000BA46062D1BD198480068007800F07F00C7
:100BE000002813D1944909688878012803D19349D2
:100BF0000968CF690AE0022803D1904909680F6AA1
:100C000004E0032802D18D4909684F6A94E0002D61
:100C100064D189480068408800285FD18648006810
:100C2000C08802285AD1844800680079002855D12C
:100C300081480068007800F07F0028B97E4800688D
:100C4000808808B97E4F77E07B480068007800F024
:100C50007F00012810D178490968487977490968E7
:100C60008A6900219047002866D173480068807A1D
:100C7000002861D0724F5FE06F480068007800F094
:100C80007F00022858D16C480068407900F00F06B8
:100C900069480068407900F0700967480068407949
:100CA00000F0800038B1674901EB8600D0F8000CF5
:100CB00000F0300806E0634901EB8600D0F8000C34
:100CC00000F4405860480078B04235D9B9F1000FBF
:100CD00032D1B8F1000F2FD0594F2DE0082D07D198
:100CE00055480068007800F07F0028BB574F23E08C
:100CF0000A2D21D150480068007800F07F000128BB
:100D00001AD14D480068807AB0B14B4800684088DD
:100D100090B949480068007970B947480068C088B0
:100D2000012809D1444909684879444909688A6910
:100D30000021904700B9464F57B13F480068A0F8DE
:100D400012A03D48006887610020B84700240FE0EA
:100D5000394A12685078394A12681169884704463E
:100D6000032C05D10920344909680872BDE8F88FC1
:100D700031480068008A4FF6FF71884204D109208B
:100D80002D4909680872F1E7022C03D02A4800684F
:100D9000008A20B90820284909680872E6E7264831
:100DA0000068007800F08000E0B323480068C08845
:100DB000009021480068008A0099884204D91E49A1
:100DC00000980968088223E01B480068008A1A49D5
:100DD0000968C98888421BDA17480068008A1749E1
:100DE000096891F82C10884203DA0020194908702C
:100DF0000EE011480068008A1049096891F82C102B
:100E000090FBF1F201FB120010B9012011490870AA
:100E10000A48006890F82C10074800688182FFF7A4
:100E200001FE07E0FFE70320034909680872000399
:100E30000949088000BF99E7E0080020E408002085
:100E4000B923000800500040580900203D23000845
:100E50008D230008D8080020F0080020704700000B
:100E60000120014908707047F4080020014908601A
:100E700070470000140401400320014908607047D6
:100E8000F00900202DE9F04102460025002600204F
:100E900000230024002791F803C00CF00F0591F8FF
:100EA00003C00CF0100CBCF1000F03D091F802C08D
:100EB0004CEA050591F800C0BCF1000F31D0146870
:100EC00000202BE04FF0010C0CFA00F3B1F800C049
:100ED0000CEA03069E4220D183004FF00F0C0CFA5F
:100EE00003F7BC4305FA03FC4CEA040491F803C081
:100EF000BCF1280F06D14FF0010C0CFA00FCC2F82F
:100F000014C00AE091F803C0BCF1480F05D14FF0BE
:100F1000010C0CFA00FCC2F810C0401C0828D1D308
:100F20001460B1F800C0BCF1FF0F34DD546800203C
:100F30002EE000F1080C4FF0010808FA0CF3B1F8AC
:100F400000C00CEA03069E4221D183004FF00F0C33
:100F50000CFA03F7BC4305FA03FC4CEA040491F8CD
:100F600003C0BCF1280F05D100F1080C08FA0CF8F9
:100F7000C2F8148091F803C0BCF1480F07D100F10A
:100F8000080C4FF0010808FA0CF8C2F81080401C59
:100F90000828CED35460BDE8F08102460020936853
:100FA0000B400BB1012000E0002070474161704709
:100FB0000161704701460548006880B200EBC1003E
:100FC000001D034A32F8100080B27047505C0040A8
:100FD0000060004001460548006880B200EBC10097
:100FE000034A32F8100080B270470000505C0040A5
:100FF0000060004010B50023012207210848FFF7D8
:1010000011FA01210648FFF76EFA00BF02210448D9
:10101000FFF7CCF90028F9D00148FFF7C3F910BD5C
:101020000024014070B50A480468001D0568001DD1
:101030000668344454B108220649204600F076F888
:10104000042204491031284600F070F870BD0000F9
:10105000E8F7FF1FF708002000BFFEE710B50121E9
:101060000748FFF7A5FF02210548FFF7A1FF02216E
:101070000348FFF79BFF01210148FFF797FF10BDD1
:10108000000C014010B501210548FFF791FF022136
:101090000348FFF78BFF02210148FFF789FF10BDCE
:1010A000000C014010B501210348FFF781FF012129
:1010B0000148FFF77BFF10BD000C014010B5184838
:1010C0000068047A022C01D0042C05D1FFF7AAFC99
:1010D00013480068047A1CE0062C19D110480068F7
:1010E000407805280ED10E480068007800F07F0097
:1010F00040B90B490968C87800F096FE09490968AB
:10110000086A80470849096888688047082400E021
:101110000824034909680C7200F002FD10BD0000AC
:10112000E0080020EC080020E408002030B50B4661
:10113000002100BF16E00A24B4EB107F05D930244B
:1011400004EB107403F8114005E0412404EB107423
:101150000A3C03F81140000100254C00641C1D5599
:101160004C1CE1B29142E6DB30BD000070B5044694
:101170000025062C18D118480068007800F07F0080
:10118000012811D114480068407968B912480068F4
:101190008078222801D1114D10E00F480068807836
:1011A00021280BD10E4D09E00B480068007800F0B3
:1011B0007F00212802D1032C00D10A4D0DB9022055
:1011C00070BD0548006885610021034800684182C0
:1011D0000020A8470020F3E7E008002041120008A3
:1011E000111200082512000810B5044602492046D5
:1011F00001F0BAF810BD0000B809002010B504468F
:101200000249204601F0B0F810BD0000B0090020EE
:1012100010B504460249204601F0A6F810BD0000B2
:10122000C8090020014629B90120034A126810822A
:10123000002070470148FCE7E00800205409002026
:1012400010B504460249204601F08EF810BD00009A
:10125000C009002070B5054606480068C478042C13
:1012600001DD002070BD044800EBC401284601F0F8
:101270007BF8F7E7E0080020D009002002460029AB
:1012800001DD02207047002A01DD0220FAE700207C
:10129000F8E7000000B5024606480068007800F054
:1012A0007F00212804D10B2A02D100F069F800BD8B
:1012B0000220FCE7E008002010B50020234909685F
:1012C000887222490968C8722148C0791F49096893
:1012D0004872002000F0A0FD4FF40071002000F0E3
:1012E00095FE1021002000F057FE1821002000F08C
:1012F000C3FD5821002000F031FE0020FFF784FAE2
:10130000144890F82C10002000F0C8FD002000F0D8
:101310000BFE4FF4C061012000F078FE4FF48071A5
:10132000012000F01BFE0421012000F027FE002117
:10133000012000F0D9FD2021012000F02DFE002029
:1013400000F072FD01200449086010BDE008002093
:101350008A5C00085C090020F00900200348817ABB
:1013600011B10521024A11607047000038140020B5
:10137000F00900200420014908607047F0090020AE
:1013800003480068C17803480160002070470000EE
:10139000E0080020540900207047704710B5FFF79F
:1013A00041FE002005490968887200F0DDFB01F06C
:1013B000DBFB00200249086010BD0000E0080020AF
:1013C000F009002010B5044608222146812001F0D2
:1013D000DDFB012000F000FE10BD000010B592B052
:1013E00000240121084600F0EBFB0121880300F0F6
:1013F000F7FB3A48FFF736FA00200490384801908E
:10140000384802901020039000200A900590802018
:10141000069040000790800008900020099001A9E4
:101420002E48FFF7DFFA0121082000F0F9FB4FF406
:101430000040ADF8440018208DF8470003208DF8D7
:10144000460011A92848FFF71DFD25480C3800F07B
:1014500097FC4FF44040ADF830004FF48270ADF887
:1014600032004FF40060ADF834000020ADF83600D3
:10147000ADF838004FF40070ADF83A000820ADF830
:101480003C000020ADF83E000720ADF840000CA95C
:1014900013480C3800F0A0FC0122022110480C383F
:1014A00000F064FC01210E480C3800F053FC00BF32
:1014B00005E000200B4921F81400601C84B2B4F54B
:1014C000806FF6DB00200949088041F61F4140F299
:1014D000F31001F0F9F912B010BD000058000240FD
:1014E0000C380040360A0020000C0140900000201B
:1014F0002DE9F04105460E464FF4E0474FF4FE4813
:10150000002480240AE005EA040109B1414600E014
:10151000394688B2314600F09FF86410012CF2DAA7
:10152000BDE8F0812DE9F04F87B082468B462A480E
:10153000007803F0BBF80022284BCDE9000102F04F
:1015400017FF06460F462648006803F0B7FA8046A4
:1015500032463B4603F0BEF8044602F027FE0290F6
:10156000CAF307400590059803F0F4FA054602997E
:1015700003F004FB044603F0CDFAC0B20590CAF3B1
:1015800007200490049803F0E5FA0546029903F059
:10159000F5FA044603F0BEFAC0B204900AF0FF0068
:1015A0000390039803F0D6FA0546029903F0E6FA91
:1015B000044603F0AFFAC0B2039059460498FFF70F
:1015C00097FF59460598FFF793FF59460398FFF791
:1015D0008FFF07B0BDE8F08FB400002000E06F403F
:1015E000B80000202DE9F04107460C4615460026BC
:1015F000022D2BD11648FFF7DBF938BB00BF06E000
:1016000057F826002946FFF78DFF701CC6B2A64288
:10161000F6D300200F49088004EB4400C004010CFD
:101620000B48FFF7FDF901210948FFF70FF900BF4B
:101630004FF40030FFF7C0F90028F9D0002104482A
:10164000FFF704F94FF40030FFF7F2F8BDE8F0813E
:101650005800024090000020022904D1054A064BA0
:101660001B8822F81300044A1288521C024B1A806D
:1016700070470000360A0020900000200548817A5B
:1016800019B10521044A116002E00121024A1160EA
:101690007047000038140020F009002000BFFEE76A
:1016A0007047704770B5002100230F22C47804B33F
:1016B000154C246804F4E064C4F5E064210AC1F127
:1016C0000403CA40447804FA03F1847814402143A7
:1016D00009010E4C0678A155047804F01F05012479
:1016E000AC4005786D11AD0005F1E025C5F800416D
:1016F00009E0047804F01F050124AC40044D06788D
:10170000761145F8264070BD0CED00E000E400E0E5
:1017100080E100E070B502264848006844784748F8
:101720000068007800F07F00002847D1092C03D121
:1017300000F0C2FE064662E0052C14D13F48006866
:10174000C0787F280BDC3D480068807838B93B487A
:101750000068808818B939480068807A08B108257F
:1017600068E000264BE0032C0ED134480068C078B6
:10177000012807D131480068808818B900F0C0FE00
:1017800006463CE002263AE0012C38D12B4800689E
:10179000C078012810D129480068808860B927489E
:1017A0000068407A00F0200030B100202449086031
:1017B00000F00EFD064622E0022620E01F480068E9
:1017C000007800F07F00012805D10B2C17D100F024
:1017D00013FF064613E019480068007800F07F0008
:1017E00002280BD1012C03D100F0F2FC064606E0E2
:1017F000032C04D100F098FE064600E002264EB10C
:10180000E0B2104A1268516988470646032E01D19A
:1018100009250FE00EB108250CE0062500210A4835
:10182000006880B2801C094A42F810103020084934
:10183000088000BF014909680D7270BDE0080020F2
:10184000D4080020E4080020505C00400060004004
:10185000F208002070B5002418E004F1B000002167
:1018600000F013F90021084600F00FF900211020C4
:1018700000F00BF9002505E00121002000F005F93A
:10188000681CC5B2802DF7DB601CC4B2082CE4DBF9
:1018900070BD70B504460D4605F1B000002100F0A2
:1018A000F4F8102141EA1410002100F0EEF804F0E1
:1018B0000F00002100F0E9F870BD00002DE9F047AD
:1018C00007460E46904699460025002445467F2F40
:1018D00002DD0027B01CC6B2B9F1100F24D1314689
:1018E0003846FFF7D6FF002408E004EB0511194A3B
:1018F000505C012100F0C9F8601CC4B2082CF4DB74
:10190000701CC1B23846FFF7C4FF002409E004EBA5
:10191000051108310F4A505C012100F0B6F8601C37
:10192000C4B2082CF3DB12E031463846FFF7B1FFB2
:1019300000240AE005EB4501074A02EB4101085D7E
:10194000012100F0A2F8601CC4B2062CF2DBBDE855
:10195000F087000048500008204E00082DE9F047AD
:1019600007460E46904699460025002445467F2F9F
:1019700002DD0027B01CC6B2B9F1100F24D13146E8
:101980003846FFF786FF002408E004EB0511194AEA
:10199000505C012100F079F8601CC4B2082CF4DB23
:1019A000701CC1B23846FFF774FF002409E004EB55
:1019B000051108310F4A505C012100F066F8601CE7
:1019C000C4B2082CF3DB12E031463846FFF761FF62
:1019D00000240AE005EB4501074A02EB4101085DDE
:1019E000012100F052F8601CC4B2062CF2DBBDE805
:1019F000F087000038560008204E00082DE9FF5FF0
:101A0000074691461E460E9D4FF0000A002438E01E
:101A1000301B401EC1B20A2002F024FAB9FBF0F0DC
:101A20000A21B0FBF1F201FB1200203800F0FF08A0
:101A3000BAF1000F14D1701EA04211DDB8F1000FF1
:101A40000CD1AB4605EBDB71491001FB0471C8B248
:101A50002B4620220199FFF731FF10E04FF0010AD9
:101A6000AB4605EBDB71491001FB0471C8B208F10C
:101A70003001CAB22B460199FFF720FF00BF601C5E
:101A8000C4B2B442C4DBBDE8FF9F70B504460D4646
:101A90001DB1E0B201F0F0F802E0E0B201F0D6F8DA
:101AA00070BD000010B511480068047A022C01D006
:101AB000042C01D1082412E0032C01D0052C05D1FF
:101AC000FFF710F809480068047A08E0072C05D1F0
:101AD00007490968C8688047082400E008240349CA
:101AE00009680C7200F01CF810BD0000E00800202E
:101AF000E4080020F0B5561C7510074E06EB4104B3
:101B00002B4605E034F8047B20F8017B401C5B1E6B
:101B1000002BF7D1F0BD00000060004070470000CE
:101B200010B50D4890F82C10002000F0B7F90B48C4
:101B30000068007A082805D1400209490880102071
:101B40000849088005480068007A092801D1012069
:101B500010BD0020FCE700005C090020E008002028
:101B6000F0080020F208002010B5012000F010FF5E
:101B700001240B48046000200A49088008460088B8
:101B8000074908600020091D08604FF4E05005492E
:101B900008800846008802490860002010BD000047
:101BA000405C0040EA08002001460020034A5068DB
:101BB00020F440400843506070470000001002408D
:101BC00029B1064A52690243044B5A6104E0034AB0
:101BD00052698243014B5A61704700000010024075
:101BE00029B1064AD2690243044BDA6104E0034A90
:101BF000D2698243014BDA61704700000010024055
:101C000029B1064A12690243044B1A6104E0034AEF
:101C100012698243014B1A617047000000100240B4
:101C200029B1064A92690243044B9A6104E0034ACF
:101C300092698243014B9A61704700000010024094
:101C400029B1064AD2680243044BDA6004E0034A31
:101C5000D2688243014BDA607047000000100240F6
:101C600070B50546072D01D02E4805702D48007827
:101C700008284ED2DFE800F004111A202B384E4F0E
:101C80002948006828B900F053F806202549087053
:101C900002E005202349087041E000F049F80420E3
:101CA0002049087001202049086038E002201D49C1
:101CB00048700320087032E01A484078401E1949E5
:101CC00048700846407808B90420087027E0174893
:101CD000006884B244F010041448046005201149DF
:101CE00008700A2048701AE00E484078401E0D49DE
:101CF00048700846407858B90C48006884B224F00F
:101D000010040A4804600620087000200649086094
:101D100005E000BF00BF06200249087000BF00BFF9
:101D200070BD0000F5090020F8090020405C00406B
:101D300010B50748006884B224F004040448046025
:101D4000FFF79CFC4FF43F400149086010BD0000C4
:101D5000405C004021B1028842F04002028004E071
:101D600002884FF6BF731A40028070471AB1838809
:101D70000B43838002E083888B438380704700009D
:101D800010B504461148844208D101218014FFF7A0
:101D900057FF0021A014FFF753FF16E00C488442C0
:101DA00008D101210014FFF72BFF00212014FFF7B9
:101DB00027FF0AE00748844207D10121C013FFF73B
:101DC0001FFF0021E013FFF71BFF10BD0030014093
:101DD00000380040003C004010B50022028802F4A8
:101DE00041520B884C8823438C882343CC8823435F
:101DF0000C8923434C8923438C892343CC89234377
:101E00001A430280838B4FF2FF74234083830B8A33
:101E1000038210BD704700004FF6F8710140014A7F
:101E200011607047505C004030B501460F4B1A7886
:101E3000002014E003060E4C04EB9353D3F8003C4F
:101E400048F68F74234048F280042343C4B22343EE
:101E50000406074D05EB9454C4F8003C401C904226
:101E6000E8D341F08003034C236030BD58090020C3
:101E7000005000404C5C004010B54A105300054A29
:101E8000126892B202EBC002121D034C44F81230E9
:101E900010BD0000505C00400060004010B50246DC
:101EA0000F48006880B200EBC200801D0D4C04EBAF
:101EB00040033E290BDD481101F01F040CB9441EFC
:101EC000A0B24FF4004444EA80241C6007E04810AC
:101ED00001F001040CB1441CA0B284021C6010BDCE
:101EE000505C00400060004030B50E4C04EB8003B5
:101EF000D3F8003C4BF68F7403EA040201F48053DC
:101F00000BB182F4805201F400530BB182F4005201
:101F100042F4004343F08003024D05EB8004C4F813
:101F2000003C30BD0050004010B50B4B03EB80026D
:101F3000D2F8002C4BF68F7302EA030181F4805132
:101F400081F4005141F4004242F08002024C04EB63
:101F50008003C3F8002C10BD0050004010B54A109B
:101F60005200044B1B689BB203EBC003024C44F8C5
:101F7000132010BD505C004000600040044A12680D
:101F800092B202EBC002921C024B43F8121070474F
:101F9000505C00400060004030B50E4C04EB800304
:101FA000D3F8003C48F6BF7403EA040201F01003C2
:101FB0000BB182F0100201F020030BB182F020027D
:101FC00042F4004343F08003024D05EB8004C4F863
:101FD000003C30BD0050004010B50B4B03EB8002BD
:101FE000D2F8002C48F6BF7302EA030181F0100119
:101FF00081F0200141F4004242F08002024C04EBE7
:102000008003C3F8002C10BD0050004010B5074BF2
:1020100003EB8002D2F8002C48F68F131A400A43D3
:10202000024C04EB8003C3F8002C10BD00500040AC
:1020300010B500F001F810BD0CB500200190009023
:102040003348006840F480303149086000BF3048B0
:10205000006800F4003000900198401C0190009846
:1020600018B90198B0F5A06FF1D12948006800F4C3
:10207000003010B10120009001E000200090009895
:10208000012843D12348006840F01000214908602E
:102090000846006820F0030008600846006840F029
:1020A000020008601A4840681949486008464068BC
:1020B00048600846406840F48060486008464068D0
:1020C00020F47C1048600846406840F4E8104860FE
:1020D0000846006840F08070086000BF0C48006847
:1020E00000F000700028F9D00948406820F0030093
:1020F000074948600846406840F00200486000BF59
:102100000348406800F00C000828F9D10CBD00001D
:10211000001002400020024038B501242948006820
:1021200080B2001D284931F8100080B201EB400058
:10213000009026480068007A092832D0009800787C
:102140002249096808700098401C009000980078A7
:102150001E49096848700098401C0090009800EBE8
:1021600044000090009931F8020B0091FEF7CDF980
:10217000164909684880009800EB440000900099D7
:1021800031F8020B0091FEF7C0F910490968888008
:10219000009800EB44000090009800880B49096803
:1021A000C880012009490968087208480068C08889
:1021B00010B9FFF7AFFA01E0FEF704FDFFF7B0FC3E
:1021C00038BD0000505C004000600040E008002086
:1021D0002DE9F04754480068007800F07F08B8F116
:1021E000000F0AD150480068407A00F0DF004E49E5
:1021F000096848720020BDE8F087B8F1020F7CD171
:1022000049480068408818B947480068007908B113
:102210000220F0E7DFF8149143480068477927F07F
:1022200080052C4640480068407900F0800038B1B5
:102230003F4901EB8400D0F8000C00F0300606E0C6
:102240003B4901EB8400D0F8000C00F4405699F8AB
:102250000000A84204D91EB133480068807A08B94A
:102260000220C8E707F0800080B1314901EB84000B
:10227000D0F8000C00F0300010284BD1E0B2FEF78F
:10228000A9FAE0B23021FFF787FE43E0284901EBCD
:102290008400D0F8000C00F44050B0F5805F39D1D4
:1022A000E4B9244A92F82C10E0B2FFF7F7FD204A77
:1022B00002EB8401D1F8001C4BF68F7201EA020098
:1022C00080F4805080F4005040F4004141F08001DF
:1022D000174B03EB8402C2F8001C1BE0E0B2FEF7D0
:1022E0005FFA134A02EB8401D1F8001C4BF68F729F
:1022F00001EA020080F4805000E011E080F4005018
:1023000040F4004141F08001094B03EB8402C2F824
:10231000001C00BF084909684869804700206AE737
:1023200000BF022067E70000E008002058090020F5
:10233000005000405C090020EC08002010B5044665
:102340002CB90120064909680882002010BD054902
:10235000096808688047024800680A30F6E700000C
:10236000E0080020EC08002010B50246064800688E
:10237000438A32B98888C01A034C2468208200201E
:1023800010BD08681844FBE7E008002010B50446BB
:102390002CB90120064909680882002010BD0549B2
:1023A000096888688047024800680C30F6E700003A
:1023B000E0080020EC08002010B504462CB90220EB
:1023C000394909680882002010BD0020374908807B
:1023D00035480068007800F07F0018BB3249096872
:1023E000487A00F0200131B13049097841F002010A
:1023F0002E4A117005E02D49097801F0FD012B4AA4
:10240000117000F0400131B12849097841F0010113
:10241000264A117005E02549097801F0FE01234A9A
:1024200011703AE020480068007800F07F00012831
:1024300001D11E48C8E71C480068007800F07F0002
:10244000022828D1184A1268517901F00F0001F0D2
:1024500080027AB1164B03EB8002D2F8002C02F016
:102460003002102A16D1114A127842F001020F4BA5
:102470001A700FE00E4B03EB8002D2F8002C02F42E
:102480004052B2F5805F05D1084A127842F001024D
:10249000064B1A7001E0002096E7064909680869B2
:1024A0008047024890E70000E0080020D0080020A4
:1024B00000500040EC08002010B50E480068C078BD
:1024C0000D494978884213DC0A480068807878B959
:1024D00008480068808858B906480068C0780549EF
:1024E000096888720549096848688047002010BD5E
:1024F0000220FCE7E008002058090020EC0800203A
:1025000010B507480068407A40F020000449096887
:10251000487204490968C8698047002010BD00005E
:10252000E0080020EC0800202DE9F0412E4800686A
:10253000467926F080073C462B480068407900F039
:10254000800038B1294901EB8400D0F8000C00F07C
:10255000300506E0254901EB8400D0F8000C00F4BA
:10256000405523480078A04208D91F480068408899
:1025700020B91DB11C480068807A10B90220BDE85E
:10258000F08106F08000A0B1184A02EB8401D1F876
:10259000001C48F6BF7201EA020080F0100040F40F
:1025A000004141F08001114B03EB8402C2F8001C92
:1025B00014E00E4A02EB8401D1F8001C4BF68F7236
:1025C00001EA020080F4805040F4004141F08001B3
:1025D000064B03EB8402C2F8001C00BF05490968E2
:1025E000886980470020CAE7E008002000500040CA
:1025F00058090020EC08002010B5174B1B68D9784B
:10260000154B1B685879154B1B689A69904704460F
:1026100011480068807AE8B13CB90F480068007939
:1026200018B90D480068807808B1022010BD8CB937
:102630000B490968C868804707480068407906491F
:102640000968C87204480068C078034909680873BB
:102650000020EBE70220E9E7E0080020E408002082
:10266000EC08002038B500250020009021480068C3
:1026700084B200BF09E0204901EB8500D0F8000CCE
:1026800080B21E4941F825006D1C082DF3D344F497
:1026900080641848046044F00104046024F00104DC
:1026A000046000BF1348001D006800F4806000282B
:1026B000F8D04FF6FF300F49091D0860002509E0EA
:1026C0000E4850F8250080B20B4A02EB8501C1F894
:1026D000000C6D1C082DF3D344F008040548046079
:1026E000006884B244F0040402480460FEF7C4FBAE
:1026F00038BD0000405C00400050004054140020F1
:10270000042808D14FF0E021096941F004014FF09D
:10271000E022116107E04FF0E021096921F0040196
:102720004FF0E022116170477047000010B5134868
:10273000006840F0010011490860084640681049EF
:1027400008400E494860084600680E4908400B4999
:1027500008600846006820F4802008600846406849
:1027600020F4FE0048604FF41F008860FFF760FC13
:102770004FF000600449086010BD000000100240E6
:102780000000FFF8FFFFF6FE08ED00E010B50121A4
:10279000880700F02CF830B10121880700F018F804
:1027A00001200149087010BDC100002010B50121B1
:1027B000054800F01CF830B10121034800F008F88A
:1027C00001200249087010BD00040040C200002032
:1027D000CA430282704721B1028842F0010202809E
:1027E00004E002884FF6FE731A400280704730B54D
:1027F0000246002000230024158A05EA010395897A
:1028000005EA010413B10CB1012000E0002030BD45
:102810001AB183890B43838102E083898B438381CF
:1028200070470000002202881D4B98420ED01D4BBD
:1028300098420BD0B0F1804F08D01B4B984205D086
:102840001A4B984202D01A4B984204D14FF68F731C
:102850001A404B881A43174B984207D0164B9842A0
:1028600004D04FF6FF431A40CB881A4302808B886E
:1028700083850B8803850A4B98420BD0094B9842FD
:1028800008D00E4B984205D00D4B984202D00D4B0C
:10289000984201D10B7A038601238382704700009E
:1028A000002C0140003401400004004000080040BA
:1028B000000C0040001000400014004000400140A7
:1028C00000440140004801407FB505460C46012107
:1028D0000846FFF785F9ADF80850ADF80440002030
:1028E000ADF80A00ADF8060001A94FF08040FFF7EF
:1028F00099FF012211469007FFF78AFF1C208DF8EF
:10290000000000208DF8010002208DF80200012057
:102910008DF803006846FEF7C5FE01218807FFF722
:102920005AFF7FBD7FB505460C4601210220FFF707
:1029300057F9ADF80850ADF804400020ADF80A0092
:10294000ADF8060001A90E48FFF76CFF0122114601
:102950000B48FFF75DFF1D208DF8000000208DF86B
:10296000010003208DF8020001208DF80300684665
:10297000FEF798FE01210248FFF72DFF7FBD000002
:102980000004004010B54FF48020FEF76FFA10BD30
:102990007047000010B588B0002468480068684996
:1029A00008800846008800F400406649098808400D
:1029B00008B1FDF7B1FD6248008800F4806061490C
:1029C0000988084030B14FF6FF305C4908605E4925
:1029D000486880475A48008800F4005059490988DF
:1029E000084018B14DF6FF705449086054480088FB
:1029F00000F4805053490988084030B14EF6FF700A
:102A00004E4908600020FFF72BF94D48008800F47C
:102A100000604C490988084060B14C48007810B10A
:102A2000FFF720FE02E00220FFF71AF94FF2FF70D5
:102A3000424908604248008800F400704149098812
:102A4000084040B14FF6FF503C49086040480078CC
:102A5000401C3F4908703A48008800F480703949AA
:102A600009880840002866D04FF6FF6033490860A7
:102A7000081D006800F40040002856D03548006862
:102A8000401C3449086008460068032850D92B4888
:102A9000001F006800F00800002849D12748001FE7
:102AA000006880B22C490860002408E02B4901EB43
:102AB0008400D0F8000C80B24DF82400641C082C6F
:102AC000F4D32548006840F0010023490860084617
:102AD000006880B21949091F08601F48006820F08B
:102AE00001001D4908600846006880B21349091FAB
:102AF000086000BF1148006800F480600028F9D029
:102B00004FF6FF300D490860002408E05DF824000E
:102B100080B2124A02EB8401C1F8000C641C082C3C
:102B2000F4D300200B49086002E000200949086046
:102B30000720FFF795F808B010BD0000445C004086
:102B400010090020EA0800205C090020F409002098
:102B5000120900201409002018090020005000402C
:102B600010B5FFF717FF10BD0020064908604FF4AD
:102B70003F4005490880084600880249091F08604F
:102B800000207047445C0040EA0800202DE9F04135
:102B900004460E46154604F07F00FEF71BFA074672
:102BA000AAB23946304600F00BF8A9B204F07F0013
:102BB000FFF7E4F90020BDE8F08100BFFEE7000068
:102BC000F0B5144604F1010C4FEA6C07DFF824C09D
:102BD0000CEB41033D460AE00678401C90F800C02B
:102BE00046EA0C2223F8022B9B1C401C6D1E002D74
:102BF000F2D1F0BD006000402DE9F04105462C46C1
:102C000001211148FEF7D2F9002619E0274607F006
:102C10008007802F04D102210B48FEF7C9F903E099
:102C200002210948FEF7C2F96006040E0121064898
:102C3000FEF7BEF901210448FEF7B8F9701CC6B2D0
:102C4000082EE3DBBDE8F081000C014010B504461E
:102C5000FEF704FA7820FFF7CFFFFEF723FA0020F3
:102C6000FFF7CAFFFEF71EFA2046FFF7C5FFFEF783
:102C700019FAFEF707FA10BD10B50446FEF7EEF993
:102C80007820FFF7B9FFFEF70DFA4020FFF7B4FFF9
:102C9000FEF708FA2046FFF7AFFFFEF703FAFEF74C
:102CA000F1F910BD490050EAC12018BF04204A0DB7
:102CB00018BF40F0010040F2FF72B2EB515F08BF55
:102CC00040F00200012808BF052070472DE9F74FAA
:102CD000144694B00021C4E902111599079121F01E
:102CE0000045C9498D4206DC1599C4E9000117B0B9
:102CF0000020BDE8F08FC549DFF814A3A9423CDDF0
:102D00000799C44E0029C44FC44A1599534619DD8A
:102D100001F0EAFD554506D0C14AC24B01F0E4FD81
:102D2000C4E900010AE04FF0D352BE4B01F0DCFDD4
:102D300032463B4601F0D8FDC4E9000117B001203E
:102D4000BDE8F08F01F064FA554506D0B44AB54BA2
:102D500001F05EFAC4E900010AE04FF0D352B14B32
:102D600001F056FA32463B4601F052FAC4E900013E
:102D700017B04FF0FF30BDE8F08FAB49A94215996D
:102D800078DB21F0004183468846A84AA84B01F031
:102D9000A1FC0022A74B01F03BFA01F041FC099095
:102DA00001F06DFC06460F469C4A534601F092FC2A
:102DB00043465A4601F08CFD80468A46984A994B14
:102DC0003046394601F086FC2A0D01250B92424619
:102DD000534601F07DFD032DC4E9000139D00B9865
:102DE000C1F30A51401A05EB45111139814230DA1D
:102DF0009148C346784400EB0510CDF80CA00C9028
:102E0000D0E900233046394601F064FC02460B4607
:102E1000049106905846039901F066FD80468A4663
:102E200002460B465846039901F05EFD049B069A44
:102E300001F05AFD83460C9803913946D0E90223EC
:102E4000304601F047FC5A46039B01F04DFD6D1CD6
:102E5000BDE707980028A2BF099817B0BDE8F08F1A
:102E6000616881F000416160099817B04042BDE897
:102E7000F08FFFE784461598C1F31301C0F30A50A1
:102E8000A0F2F5304FEA601800F01F06C6F12000EE
:102E9000139000200690079041F4801E05206D4697
:102EA00076B1664A08EB00017A4452F8213002EB11
:102EB0008101B3404A68139922FA01F1194305E0F0
:102EC0005F4908EB0002794451F82210A1FB0E275C
:102ED000A1FB0C131A449A4234BF0123002303EBD5
:102EE000070A05EB8003D3E901B70F448F4234BFD3
:102EF0000121002193448B4411B1934502D903E091
:102F0000934501D2012100E00021C3E901B75144FA
:102F100045F82010011EA0F10100C1DC0298059FB8
:102F200000F10050800F12900298DDE903568000F6
:102F300001F0A5FB834628460D9101F0B7FB6FF029
:102F40001D0201F019FFCDE90E01304601F0AEFB84
:102F50006FF03D0201F010FF80468A46384601F0CE
:102F6000A5FB6FF05D0201F007FF0746424653469E
:102F7000119101F04DF9DDE90E2301F049F95A46AE
:102F80000D9B01F045F900250E465A4628460D9B3B
:102F900001F0AAFCDDE90E2301F0A6FC42465346EF
:102FA00001F0A2FC3A46119B01F092FCDFF898A0D8
:102FB000244A534601F08EFB07468846234A244B99
:102FC0003146284601F086FB3A46434601F020F997
:102FD000074688464FF0A84253463146284601F03E
:102FE00079FB3A46434601F013F9159A12F0004F67
:102FF00004D0129A81F0004152421292C4E90001B9
:10300000129817B0BDE8F08FFB21E93F7CD9024050
:10301000FB21F93F7370032E8A19A33B0000405433
:103020003163621A61B4D03DFB21394183C8C96D57
:10303000305FE43F0000E03F802F0000FC2E0000E6
:10304000DE2E0000182D4454FB21F93D3326A61135
:10305000460B113C2DE9FF4D21F0004807460C4678
:10306000B8F1795F08DA01F0DBFA002801BF00202F
:10307000324904B0BDE8F08D3A4623461046194661
:1030800001F028FB054602462D480E460B46062158
:10309000784400F05DF82A46334601F01BFBDDE979
:1030A000022382468B463846214601F013FB044634
:1030B0000F4652465B462846314601F00BFB22463E
:1030C0003B4601F011FC07468A464FF0FF32284686
:1030D000314601F051FE1B4A90450ADA3A46534602
:1030E00001F002FC04B00022BDE8F04D134B01F0EA
:1030F000EFBB154A4245A8BFA8F500154FF00004E4
:10310000B8BF124D22462B4601F0EEFB064688461C
:1031100022462B460020094901F0E6FB04460D46F5
:103120003A4653463046414601F0DEFB04B02246A3
:103130002B46BDE8F04D01F0CBBB00000000F03F96
:10314000B42C00003333D33F0000E93F0000D23FEE
:103150002DE9F0414F1E00EBC7010446D1E9000103
:1031600015461E4637F006020DD02A46334601F0BA
:10317000B1FA7F1E04EBC703D3E9002301F048F83E
:1031800037F00602F1D1022F25D0042F13D0062FDD
:1031900018BFBDE8F0812A46334601F09BFAD4E916
:1031A0000A2301F035F82A46334601F093FAD4E9B0
:1031B000082301F02DF82A46334601F08BFAD4E9B2
:1031C000062301F025F82A46334601F083FAD4E9B4
:1031D000042301F01DF82A46334601F07BFAD4E9B6
:1031E000022301F015F82A46334601F073FAD4E9B8
:1031F0000023BDE8F04101F00BB800002DE9FF4DC0
:10320000054621F0004084B00C46B0F1795F0BDA3E
:103210002846FFF747FD042808BF00F06FF828464E
:1032200008B02146BDE8F08D2A460B46104601F055
:1032300051FA06460F462A46234601F04BFA8046CD
:1032400026488A4632463B4605217844FFF780FFF0
:1032500083461098029160B3214A224B4046514662
:1032600001F038FACDE900015A4640465146029B2A
:1032700001F030FA82468846DDE906014FF0FF3260
:1032800001F07AFD5246434601F02EFB32463B46A2
:1032900001F020FADDE9062301F026FBDDE9002339
:1032A00001F022FB08B02A462346BDE8F04D01F0AC
:1032B0000FBB0B465A463046394601F00BFA084A16
:1032C000084B00F0A5FF4246534601F003FA08B050
:1032D0002A462346BDE8F04D00F09ABFF22B0000CD
:1032E000495555555555C5BF012201F045BD002230
:1032F00013461046114601F03BB80000024A002078
:10330000110701F039BD000001FDFFFF2DE9F74F66
:1033100014480078B42802DD0020124908701148D2
:10332000007801F0C3F980460F4A104B01F0D2F942
:10333000064600220E4B01F01BF8044600F0BEFDCD
:10334000824600F033FF0B490860022211460098C4
:10335000FEF748F903480078C01C02490870BDE830
:10336000FE8F0000BC000020F1D4C853FB210940AF
:1033700000806640B8000020F8B506460F461446A7
:103380000025200C48490870200A4849087048491F
:103390000C701020032300904348027800210A207B
:1033A000FEF72CFB102003230090404802780221F6
:1033B0000A20FEF723FB1020032300903C480278EC
:1033C00004210A20FEF71AFB3A488078582810D1C9
:1033D00039480078032802D1002037490870364860
:1033E0000078401C344908704FF47A7000F08AF875
:1033F00042E03048807857281DD12F4800780128B6
:1034000005D129480078401C2749087034E02A4833
:103410000078022805D125480078401C234908700F
:103420002AE025480078032826D121480078401C4E
:103430001F49087020E01F48807856281CD11E487C
:103440000078012805D118480078401E16490870F8
:1034500012E019480078022805D114480078401E6F
:103460001249087008E014480078032804D1104875
:103470000078401E0E4908700B48007800040B4984
:10348000097840EA01200A49097808430B49086095
:10349000002505E00948006846F82500681CC5B20B
:1034A000BD42F7D3F8BD0000BD000020BE000020E3
:1034B000BF00002019000020C0000020B000002044
:1034C00010B56FF00400FFF71BF90A4800680A49BD
:1034D000B0FBF1F0094908700846007800EB4001A4
:1034E000C1EBC0104FF6FF7101EAC000044908802B
:1034F00010BD00000000002000127A00140000201F
:10350000160000200146114A12884A434FF0E0237A
:103510005A6100229A611A46126942F001021A6148
:1035200000BF4FF0E022106900F001021AB100F470
:103530008032002AF5D04FF0E022126922F0010219
:103540004FF0E0231A6100229A61704716000020B4
:103550000146114A12784A434FF0E0235A61002293
:103560009A611A46126942F001021A6100BF4FF0D7
:10357000E022106900F001021AB100F48032002A42
:10358000F5D04FF0E022126922F001024FF0E02363
:103590001A6100229A6170471400002010B5FDF7EF
:1035A00029FD6E2190FBF1F201FB12000A300002AE
:1035B0000B4908600A20FFF7CBFFFDF71BFD322106
:1035C00090FBF1F201FB1200401D05490968084318
:1035D0000349086008460168024800F09FF810BDE2
:1035E000C4040020CF0400201CB5FFF769FF64204D
:1035F000FFF788FFFDF7F2FE002405E04FF6FF70AD
:103600004DF82400601C84B2022CF7DB73E000F05C
:1036100077FA39480078012834D1384800780128F1
:1036200046D10020354908703548FDF7CBFE3548B6
:103630000278102300210846FEF790F931484278BD
:10364000102300210820FEF789F92E4882781023E4
:1036500000211846FEF782F92A48C278102300217B
:103660001820FEF77BF9274802791023002120203B
:10367000FEF774F923484279102300212820FEF731
:103680006DF915E01C480078022811D11E48007819
:1036900020B100F063FC00201B4908701B48007833
:1036A00030B11B48007800F0DBFC0020174908709F
:1036B00018480078F8B110480078032813D116484C
:1036C000022102686846FFF757FE0222114668464B
:1036D000FDF788FF022211466846FFF717FE00201B
:1036E0000C49087007E0022211466846FFF70EFEFB
:1036F0000020084908708AE7180000208F00002089
:103700001900002021000020CC040020C20000206D
:10371000CE040020C1000020B00000202DE9F041BF
:1037200006460F46C7F30F254FF6FF7000EA072441
:103730002412A046E21704EB5272D110E8B2FEF751
:10374000A8F82046E11704EB5171C910802202FB52
:1037500001518DB2E11704EB5171C910A4EBC10204
:1037600001219140725D11437155705D0121FEF799
:103770008CF9BDE8F08100002DE9F04106460F46C6
:103780002BE03868C0F30F254FF6FF71386801EA67
:1037900000242412A046E21704EB5272D110E8B2C2
:1037A000FEF777F82046E11704EB5171C91080222B
:1037B00002FB01518DB2E11704EB5171C910A4EB6A
:1037C000C10201219140725D11437155705D01216B
:1037D000FEF75BF9002500243F1D38680028D0D192
:1037E0001848006860B317480068C0F30F251548F3
:1037F00000684FF6FF7101EA00242412A046E21788
:1038000004EB5272D110E8B2FEF743F82046E117FC
:1038100004EB5171C910802202FB01518DB2E117F6
:1038200004EB5171C910A4EBC1020121914081F058
:10383000FF01725D11407155705D0121FEF725F9A0
:10384000BDE8F081C804002070B504460D4604EBC5
:103850008401404A02EB810151F825003EA1FCF7AA
:10386000D3FC30B93E48007840F002003C49087073
:103870006EE004EB8401374A02EB810151F8250028
:1038800038A1FCF7C1FC30B93548007840F0200081
:10389000334908705CE004EB84012E4A02EB81019D
:1038A00051F8250031A1FCF7AFFC30B92C48007865
:1038B00040F001002A4908704AE004EB8401254ADF
:1038C00002EB810151F825002AA1FCF79DFC30B9DB
:1038D0002348007840F010002149087038E004EBDC
:1038E00084011C4A02EB810151F8250023A1FCF759
:1038F0008BFC30B91A48007840F004001849087071
:1039000026E004EB8401134A02EB810151F8250003
:103910001CA1FCF779FC30B91148007840F0400058
:103920000F49087014E004EB84010A4A02EB81019C
:1039300051F8250015A1FCF767FC30B9084800785C
:1039400040F008000649087002E0002010490870A5
:1039500070BD0000280000204C53686966740000A8
:103960008C00002052536869667400004C437472E6
:103970006C000000524374726C0000004C416C7487
:103980000000000052416C740000000057696E0096
:103990008E00002000201AE000210FE0184A02EB00
:1039A0008002525C174B03EB80035B5C9A4203D0AE
:1039B0000122154B1A7003E04A1CD1B20429EDDB39
:1039C00000BF114A127802B103E0421CD0B20528B0
:1039D000E2DB00BF00200FE0002109E0094A02EB12
:1039E0008002525C064B03EB80035A544A1CD1B24E
:1039F0000429F3DB421CD0B20528EDDB7047000040
:103A0000220A00200E0A00208D00002010B500249C
:103A100006E0054A2146054800F00AF8601CC4B2D9
:103A2000042CF6DB10BD0000184E00080008014011
:103A300070B506460C46154635F814103046FDF7AD
:103A4000B7FA3220FFF784FD08212B48FDF7A5FACD
:103A500018B101202949085502E0002027490855DE
:103A60000520FFF775FD4FF480712348FDF795FAA7
:103A700020B101212148001D015503E000211F480C
:103A8000001D01550520FFF763FD20211A48FDF7B1
:103A900084FA20B1012119480830015503E00021C2
:103AA0001648083001550520FFF752FD4021124805
:103AB000FDF773FA20B1012110480C30015503E0E5
:103AC00000210E480C3001550520FFF741FD8021F3
:103AD0000948FDF762FA20B101210848103001556C
:103AE00003E0002105481030015535F81410304628
:103AF000FDF75CFA70BD0000000C01400E0A0020CA
:103B000010B5FFF783FFFFF745FF0648007838B18F
:103B100000200449087000F009F8012002490870EB
:103B200010BD00008D0000208F0000202DE9F04125
:103B3000002700209B4908709B48007801286DD120
:103B40009948407801280FD198480078012803D17E
:103B50000220964908705FE001209449087094495A
:103B60000870FDF777FE57E08F488078012804D170
:103B700000219048FEF72FFE4EE08B48C0780128C8
:103B800004D101218B48FEF726FE45E086480079E6
:103B900001280DD188480078FF2803D100208649EC
:103BA000087039E08448007833308349087033E086
:103BB0007D48407901280CD17F48007818B9FF2052
:103BC0007D49087028E07C48007833387A490870CD
:103BD00022E075488079012803D166207649087073
:103BE0001AE07148007A012816D103206F49087045
:103BF000FDF730FE1023322200210846FDF75EFE5D
:103C00001023272202210020FDF758FE1023222234
:103C100004210020FDF752FEBDE8F081002418E0E9
:103C200004EB44006549085C88B104EB4400084497
:103C300040785D4901EB800004EB44015F4A114488
:103C40008978405C18B9002004EB44015054601C92
:103C5000C4B2062CE4DB002488E0002681E0524850
:103C600000EB8400805D012879D131462046FFF7C2
:103C7000EBFD53480078002871D100250DE005EBDD
:103C800045004E49085C4F4901EB8401895D88423B
:103C900001D1012703E0681CC5B2052DEFDB00BF91
:103CA000EFBB002518E005EB45004449085C88B9E6
:103CB000444800EB8400805D05EB45013F4A5054C9
:103CC00005EB450011460844447005EB45000844E7
:103CD000867003E0681CC5B2062DE4DB00BF3348E4
:103CE0000078022838D1374800EB8400805D6028D6
:103CF00006D135480078042802D0032032490870E4
:103D0000304800EB8400805D5D2806D12E480078A5
:103D1000032802D004202C4908702A4800E01AE049
:103D200000EB8400805D5C2806D1274800780128DC
:103D300002D0022024490870224800EB8400805DF4
:103D40005E2809D120480078022805D001201E49AC
:103D5000087001E003E00027012019490870701C79
:103D6000C6B2042EFFF67BAF601CC4B2052CFFF672
:103D700074AF0C4800781549087000250EE005EB7B
:103D800045000E49095CA81C104A115405EB45007A
:103D90000A49085C0E494855681CC5B2062DEEDB81
:103DA00000BF39E78C0000200E0A00201800002018
:103DB000CC04002000040040B4000020FC090020D6
:103DC0008E000020044E0008CE04002019000020C0
:103DD0002100002000B587B001214FF40170FDF7EC
:103DE0001FFF4FF40040FDF7DFFE8020ADF8040018
:103DF00000208DF8070001A91848FDF743F818487E
:103E0000FCF798FA002002908DF80C008DF80D0058
:103E10004FF4602004904FF40060059001208DF86D
:103E2000180002A90E48FCF7D5FA01210C48FCF74E
:103E300076FA0B48FCF752FB00BF0948FCF7BFFAC3
:103E40000028FAD10648FCF759FB00BF0448FCF7EC
:103E50009FFA0028FAD107B000BD00000008014019
:103E60000024014010B50246012000E050430B1E23
:103E7000A1F10104E1B2F9D110BD2DE9F0410646EE
:103E8000002416E02546E21704EB5262C2F3C71184
:103E90002746E21704EB5262D211A4EBC212D0B251
:103EA000FDF7F7FC30780121FDF7EFFD761C601C73
:103EB00084B2B4F5806FE5DBBDE8F08100B5254B39
:103EC00021F0004287B09A4203DC002213460092A0
:103ED0002BE0214B9A4208D140B94FF00100FCF78A
:103EE000DBF9FFF704FA07B000BD03DBFFF7FCF9CD
:103EF00007B000BD02AAFEF7E9FE10F003014FF083
:103F000001000DD0012914D002291AD00DF1080C9E
:103F10009CE80F00FFF79EF807B081F0004100BD5C
:103F20000DF1080C00909CE80F00FFF767F907B04F
:103F300000BD0DF1080C9CE80F00FFF78BF807B0EF
:103F400000BD0DF1080C00909CE80F00FFF756F93A
:103F5000E2E70000FB21E93F0000F07F10B50024FC
:103F60000120374908700020364908700120364981
:103F700008700020354908603549086000BF05E039
:103F80003448005D34490855601C84B2B4F5806F34
:103F9000F6DB002405E00020304941F82400601CD5
:103FA00084B2802CF7DBFFF715FFFFF789FAFDF7E6
:103FB00021F86E2190FBF1F201FB12000A300002A1
:103FC000264908600A20FFF7C3FAFDF713F83221EB
:103FD00090FBF1F201FB1200401D204909680843E3
:103FE0001E490860FDF706F86E2190FBF1F201FB17
:103FF00012000A300002154908600A20FFF7A8FAEB
:10400000FCF7F8FF322190FBF1F201FB1200401D9A
:104010000E49096808430D4908600E48FFF72DFF57
:104020000E490D48FFF7A8FB084801680A48FFF74A
:1040300075FB41F61F4140F28F10FEF773FC10BD77
:10404000CE040020C2000020CD040020C4040020C3
:10405000C8040020C4000020CF0400203812002033
:104060002DE9F041054600244B480068C0F30F27B6
:10407000494800684FF6FF7101EA0026361201E058
:10408000601C84B24449601C51F820000028F7D11C
:10409000084650F8240041490860012D02D1781CDF
:1040A00087B20DE0022D02D1781E87B208E0032D01
:1040B00002D1701E86B203E0042D01D1701C86B2BD
:1040C00007E0601E344951F8200041F82400601ECA
:1040D00084B2002CF5D146EA07202F49086000BFC2
:1040E00030E02D4800687F21B1EB102F01D1012075
:1040F00000E0002028490968090A09B9012100E007
:10410000002108432449097809B9012100E0002170
:104110000843214909783F2901D1012100E000210C
:10412000084310B1FFF71AFF0EE01B480246016872
:10413000601C52F82000814202D1FFF70FFF03E01C
:10414000601C84B2802CCCDB00BF00241AE0124833
:1041500050F8240012490968884211D1FFF71EFA6D
:104160000E4800680C490F4A127841F822000D48A9
:104170000078401C0B49087000200849086003E0E3
:10418000601C84B2802CE2DB00BF03490648FFF7C5
:10419000F3FABDE8F081000038120020C8040020C6
:1041A000C4040020CD040020CF04002021F00042F0
:1041B000A2F16052B2F5801F01F0004328BFD2F196
:1041C0007F6C0BD95FEA001C43EAC20242EB5070DD
:1041D00018BF704728BF20F001007047B2F5801F5C
:1041E000BCBF184670474FEA410C1CF5001F02D2B5
:1041F000084600F08ABD70B500F016FB000000898B
:10420000FFF7F6BF4FF00040A0F5800070470000B8
:1042100010B591EA030F48BF83F0004300F16C83AF
:10422000841A71EB030C05D2121943EB0C03001B2B
:1042300061EB0C01DFF824E14FEA1154A4EB135CAD
:104240001EEA430F18BF9EEA445F73D023EA0E03B1
:10425000DCF1200E21EA045143F4801332D322FA18
:104260000CFE10EB0E0023FA0CFE41EB0E01CCF11C
:10427000200E03FA0EFE10EB0E0051F10001B1F515
:10428000801FCCF1200E32D201EB045112FA0EF253
:10429000BDE8104058BF7047401C38BF5FEA42027B
:1042A00018BF7047002814BF20F0010041F1000141
:1042B0004FEA410313F5001F38BF7047A1F1C04119
:1042C00000F000BB012A43EB0302ACF1200CDCF14F
:1042D0001F0E32BF4FF0000E23FA0CF310EB030059
:1042E00041EB0451B4EB115FD0D0A1EB045101F5C7
:1042F000801149085FEA300001EB04510ED350F100
:10430000000038BF12FA0EFE08D1BDE81040C9E720
:10431000401C38BF5FEA4202CAD1C3E7BDE8104083
:104320004FEA410313F5001F38BF7047A1F1C041A8
:1043300000F0C8BA9EEA445F08D011EA5E0FBDE8FB
:10434000104004BF01F0004100207047BDE810405C
:1043500070B500F069FA00BF64FBBE3E0000E0FFEC
:1043600002494FF0000000F0D5BC00BF0000F87F0C
:104370002DE9C04130B4DFF8A0C23CEA111418BFE7
:104380003CEA131400F0EC8081EA03051CEA1114E6
:1043900044EAD57418BF1CEA131500F0C780A4EBDB
:1043A00005044FF0004545EAC12145EAC32341EA2F
:1043B000505143EA525304F17F74994204F500349A
:1043C0004FEAC0204FEAC22208BF904200F09C8012
:1043D0004FEA13650FF24016765D4FEA134506FB70
:1043E00005F7C7F1807706FB07F74FEAD737A7FB3A
:1043F00003687642C8F58038A7FB06CE38BFA8F11F
:10440000010807FB08E64FF0000EA6FB028CE6FB56
:1044100003CEDCF1000CCEF1004E38BFAEF1010E40
:10442000A6FB0C584FF000074FF00005E6FB0E8787
:10443000A1FB08C6A0FB07CE16EB0E0645F1000552
:10444000E1FB076515F1E04E7EBFA4F580345FEA1D
:1044500046066D4116F1800745F100054FEA172722
:104460004FEA066647EA0567A6F1DE46B6F1805FC9
:104470004FEA15251FD9384624F0010C05EBC4710D
:10448000BCF1FE6F01EB0C1102D8F0BCBDE800815D
:1044900024425CBF01F5801E9EEAC47F02D4F0BCBA
:1044A000BDE80081244238D4F0BCA1F1C041BDE890
:1044B000004100F007BA4FEAD22242EA43524FEAE3
:1044C000D323A7FB02864FEAD02040EA415007FBE6
:1044D00003661EEA0E0F4FEAD12105FB026658BFA4
:1044E000A6EB0056B6EB00564FEA520E4EEAC37EDC
:1044F00018EB0E0E56EB530EBDD518EB02085E41BD
:104500007F1C55F10005B6E74FF480154FF000070A
:104510004FF000064FF00008ADE7F0BC4FF0000090
:1045200001F1C04101F00041BDE8008111EA0C1F1A
:104530000CEA131500D00CE013EA0C1F00F02580E4
:104540004FF00000F0BC81EA030101F00041BDE83A
:104550000081F0BCBDE8004181EA030100F0B2B97E
:10456000F0BCBDE8004170B500F05EF9097EFC3E8C
:1045700000F007B881EA03014FF0000001F00041AC
:10458000704781EA030100F09DB9F0BCBDE800412D
:104590004FF0000021497047FFFDFBF9F7F5F4F2F9
:1045A000F0EEEDEBE9E8E6E4E3E1E0DEDDDBDAD8CE
:1045B000D7D5D4D3D1D0CFCDCCCBCAC8C7C6C5C42C
:1045C000C2C1C0BFBEBDBCBBBAB9B8B7B6B5B4B343
:1045D000B2B1B0AFAEADACABAAA9A8A8A7A6A5A42E
:1045E000A3A3A2A1A09F9F9E9D9C9C9B9A999998F2
:1045F0009797969595949393929191908F8F8E8E95
:104600008D8C8C8B8B8A8989888887878685858421
:1046100084838382828181800000FF070000F87F0D
:104620004FEA41034FEA5353A3F58063D3F11E03CE
:10463000C8BFD3F1210C0CDD4FF0004242EAC12289
:1046400042EA505232FA03FC8CEAE17CACEBE170B6
:104650007047102BC4BF0020704703F5787CBCF175
:10466000FF3F04D06FF0004282EA2100704770B52E
:1046700000F0DAF84992248000207047F2E710F049
:10468000004248BF4042B0FA80F310FA03F10AD06A
:10469000C3F11D0303F580634FEA415002EB03525F
:1046A00002EBD12170474FF000007047B0FA80F361
:1046B00010FA03F10AD0C3F11D0303F580634FEA3A
:1046C00041504FEA035202EBD12170474FF00000F6
:1046D00070470000DFF848C170B51CEA111E1EBF0C
:1046E0001CEA13159EEA0C0F95EA0C0F00F06F8080
:1046F00081EA030423EA4C134EEAD47E21EA4C11EA
:1047000041F4801143F48013AE44A1FB024CA0FBA2
:104710000365AEF17F7E361955EB0C05A1FB034C0A
:104720004CF10003A0FB021C16EB0C06654153F193
:104730000003094218BF46F0010613F4007F0BD1B5
:104740004FEA03314FEA0530340341EA155140EA9C
:1047500016506FF003020AE04FEAC3214FEAC5206A
:10476000F40241EA555140EA56506FF0020202EB62
:104770002E4201EB025585EACE710AD05FEA440C65
:1047800018BF24F0004450F1000041F1000120EA7C
:10479000D47040F2FE7C624500D270BDA84214BFC6
:1047A0004FF080444FF04044002E08BF0024BEF17B
:1047B000806FA8BFA1F1C041BDE8704080F2828047
:1047C0004FF0000001F1C04101F0004170479EEA46
:1047D0000C0F0CEA131518BF95EA0C0F06D04FF01A
:1047E000000081EA030E0EF0004170BD00F01CF8DD
:1047F0008900013E00F007B800F009B84FEA430C09
:104800005FEA5C5C08D081EA030100F05BB84FEA24
:10481000410C5FEA5C5CF6D14FF000000149704743
:104820000000FF070000F87F0EF1020E2EF0030ECD
:104830005EF8046B364205D4012A43EB030515F5F7
:10484000001F12D8012841EB010C1CF5001F0CD8E9
:104850000ED14FEAD17C15F5001F0CEB4C0C0CF17E
:10486000020C08BF4CEBD37C04E04FF0080C01E0D5
:104870004FEAD37C0CEB4C0526FA05F606F007064A
:10488000B6F1040C06D20EEB860CBDE870404CF07D
:10489000010C6047DFE80CF0090B02024FF0004109
:1048A0004FF00000A1F5002170BD19461046012807
:1048B00051EB010418BFD4F5001484BF002001F0AF
:1048C000004170BD0808A0F500114FEA31017047A2
:1048D00091EA030F10B581F000413FF5A1AC83F0E0
:1048E000004300F009B8000010B591EA030F48BF7B
:1048F00083F000433FF594AC841A71EB030C07D2AC
:1049000012198CF0004C43EB0C03001B61EB0C0103
:10491000DFF8A4E14FEA1154A4EB135C1EEA430F45
:1049200018BF9EEA445F00F0B08023EA6E03524253
:1049300021EA0451C3EB6E0338BF5B1EDCF1200E8D
:1049400025D322FA0CFE10EB0E0043FA0CFE41EBCD
:104950000E01CCF1200E03FA0EFE10EB0E0051F109
:104960000001CCF1200E29D412FA0EF201EB045111
:10497000BDE8104058BF7047401C1CBFB2F1004F4B
:10498000704700280CBF491C20F00100704712EB53
:10499000020E43EB030218BF4FF0010E4EEA420233
:1049A000ACF1200CDCF11E0E54D943FA0CFE10EBD6
:1049B0000E0051F1FF31CCF11E0ED5D50EF1010ED6
:1049C00012FA0EFE404141EB010101EB445C5FEA4B
:1049D0005C5C10D910EBDE7001EB045138BFBEF106
:1049E000004FBDE8104018BF704700280CBF491C9D
:1049F00020F00100704730D24FEAD42C11F500119D
:104A000024F400641BD0B1FA81F20B3AA41AA41E5C
:104A1000D2F12003914030FA03F31943904001EBA7
:104A2000CC71002C01EB0451BDE81040A8BF7047C9
:104A300001F1C0414FF0000001F000417047B0FAB1
:104A400080F310FA03F100D110BDE41A173C4805B9
:104A5000C90AE4E701EB045110BD491001EB045110
:104A6000BDE810404FEA300002E04FF0000170470F
:104A70004A0008BF0042F8D0B2F5001F28BF7047B7
:104A800001F000414FF0000070479EEA445F07D0FC
:104A900011EA5E0FBDE8104004BF002100207047FE
:104AA000BDE8104070B5FFF7BFFE00BF40DFF63E27
:104AB00083F00041104670470000E0FF43004FEADA
:104AC000D30C4FEA3C0C43401FBF40070CF1605130
:104AD00013F0FE4F70471CF0006F03D100200CF064
:104AE000004170470CF0004343EA507010B540EAB3
:104AF000CC0000F0C4F800BF000000924FEA0001B3
:104B0000FFF7E0BE4FF000414FF00000A1F500219B
:104B100070470000C10DD1F19E0206DB4FEA002371
:104B200043F0004323FA02F07047004207D54FEAF2
:104B30004001B1F1FE4F02D24FF00000704710B5B6
:104B400000F09DF849922480002070476FEA200011
:104B500070470000B0FA80F310FA03F2C3F19D032E
:104B60000AD0D90501EB1220530638BF704700F177
:104B7000010008BF20F00100704700004FF47F0CD7
:104B80001CEAD0121EBF1CEAD11392EA0C0F93EA62
:104B90000C0F00F0478090EA010F48BF42F480728A
:104BA0004FF0004C4CEA00204CEA012102EB0302DA
:104BB000A0FB0113A2F50002002918BF43F0010376
:104BC0005B0028BF4FEA330342EB22425FEA132C1B
:104BD0004CEBC2502EBFBCEB436FB2F57C0F70475D
:104BE0004FEA036CBCF1004F08BF20F00100B2F5A2
:104BF0007C0F38BF70470BD582F0FF0212F5803F63
:104C0000C8BF704700F1C040D8BF00F000407047F7
:104C100000F5000C5FEA4C0C48BF7047B0F1C04093
:104C200000F073B890EA010F0CEAD11348BF42F4C8
:104C30008072624538BF634504D280EA010000F00B
:104C40000040704710B500F01AF800BF8900013E1F
:104C500000F007B800F009B85FEA410C5FEA1C6C8D
:104C600008D080EA010000F050B85FEA400C5FEA2B
:104C70001C6CF6D14FF00040A0F5800070470EF19B
:104C8000020E2EF0030E5EF8044B244204D44FEAC9
:104C90004102B2F17F4F11D84FEA4003B3F17F4F89
:104CA0000CD80ED14FEAD07CB2F17F4F0CEB4C0CFC
:104CB0000CF1020C08BF4CEBD17C04E04FF0080C67
:104CC00001E04FEAD17C0CEB4C0324FA03F404F02E
:104CD0000704B4F1040C06D20EEB840CBDE81040BE
:104CE0004CF0010C6047DFE80CF0070802024FF0BF
:104CF0000040A0F5800010BD0846420018BFD2F168
:104D0000807288BF00F0004010BDFF2141EAD05002
:104D1000C00570470CF00F03092B08BF082000F0F6
:104D200059800A2B0BD0082B18BF704708BF1CF006
:104D3000400F0AD04FF000004FF0000170471CF008
:104D4000400F18BF4FF0004070471CF0100F08D004
:104D500020F0704300F07F4242EAD3014FEA4370F3
:104D6000704700F0604021F07F4242EA000201F00B
:104D70007F4040EA727070474FF0FF0C4CF4E06CDB
:104D80001CEA11531CBF9CEA030C9445C2BFDA42D3
:104D900001EB02517047002B0DD0BCF1000F0FD07A
:104DA000002A01F00041A4BF41F0E04141F07F61E1
:104DB0004FF00000704701F000414FF000007047D5
:104DC00050EA01334FF09B0C18BF4CF0806C7FF41D
:104DD000C7AA70471CF4801F11D01CF4E02F03D029
:104DE0006FEACC31490070474FF04050EFF300823A
:104DF00022F0704242EA000282F3008870474FF0CE
:104E000000007047005455565F6061575C5D5E5707
:104E1000595A5B586262635801000200100020007A
:104E20000000000000000000002F0000000007004C
:104E3000070000147F147F1400242A7F2A120062C6
:104E40006408132300364955225000000503000072
:104E500000001C224100000041221C000014083EFA
:104E600008140008083E0808000000A060000008C0
:104E70000808080800006060000000201008040214
:104E8000003E5149453E0000427F400000426151D2
:104E90004946002141454B31001814127F1000276C
:104EA00045454539003C4A4949300001710905032F
:104EB00000364949493600064949291E0000363660
:104EC00000000000563600000008142241000014C3
:104ED00014141414000041221408000201510906A0
:104EE00000324959513E007C1211127C007F494921
:104EF0004936003E41414122007F4141221C007F52
:104F000049494941007F09090901003E4149497A5F
:104F1000007F0808087F0000417F410000204041D9
:104F20003F01007F08142241007F40404040007F45
:104F3000020C027F007F0408107F003E4141413E89
:104F4000007F09090906003E4151215E007F0919D1
:104F500029460046494949310001017F0101003FCE
:104F60004040403F001F2040201F003F4038403F4E
:104F700000631408146300070870080700615149B2
:104F8000454300007F41410000552A552A55000045
:104F900041417F00000402010204004040404040C3
:104FA000000001020400002054545478007F48445B
:104FB000443800384444442000384444487F003892
:104FC0005454541800087E0901020018A4A4A47CBB
:104FD000007F080404780000447D40000040808485
:104FE0007D00007F102844000000417F4000007CCD
:104FF00004180478007C08040478003844444438D9
:1050000000FC242424180018242418FC007C080424
:10501000040800485454542000043F444020003CFD
:105020004040207C001C2040201C003C4030403C84
:10503000004428102844001CA0A0A07C0044645414
:105040004C44141414141414000000000000000058
:105050000000000000000000000000F80000000058
:10506000000000333000000000100C06100C060099
:10507000000000000000000040C07840C078400000
:10508000043F04043F040400007088FC0830000062
:10509000001820FF211E0000F008F000E0180000BA
:1050A00000211C031E211E0000F008887000000073
:1050B0001E2123241927211010160E0000000000C5
:1050C0000000000000000000000000E018040200E2
:1050D000000000071820400000020418E000000053
:1050E0000040201807000000404080F08040400051
:1050F0000202010F01020200000000F000000000A7
:105100000101011F0101010000000000000000007A
:1051100080B07000000000000000000000000000EF
:105120000001010101010101000000000000000078
:105130000030300000000000000000008060180413
:10514000006018060100000000E010080810E000F0
:10515000000F102020100F00001010F800000000B9
:105160000020203F20200000007008080888700000
:105170000030282422213000003008888848300080
:105180000018202020110E000000C02010F80000A0
:1051900000070424243F240000F808888808080039
:1051A0000019212020110E0000E01088881800004E
:1051B000000F112020110E0000380808C838080020
:1051C0000000003F000000000070880808887000A0
:1051D000001C222121221C0000E010080810E00021
:1051E0000000312222110F00000000C0C0000000AA
:1051F00000000030300000000000008000000000CF
:1052000000008060000000000000804020100800C6
:10521000000102040810200040404040404040008F
:10522000040404040404040000081020408000006A
:105230000020100804020100007048080808F0006F
:105240000000003036010000C030C828E810E0003F
:105250000718272423140B000000C038E0000000CA
:10526000203C23020227382008F888888870000034
:10527000203F202020110E00C03008080808380008
:10528000071820202010080008F808080810E0007F
:10529000203F202020100F0008F88888E808100020
:1052A000203F20202320180008F88888E8081000F4
:1052B000203F200003000000C0300808083800002C
:1052C00007182020221E020008F808000008F8082D
:1052D000203F210101213F20000808F808080000B4
:1052E0000020203F2020000000000808F8080800E7
:1052F000C08080807F00000008F888C0281808005F
:10530000203F20012638200008F808000000000097
:10531000203F20202020300008F8F800F8F808008E
:10532000203F003F003F200008F830C00008F80888
:10533000203F200007183F00E01008080810E00098
:105340000F10202020100F0008F808080808F000AF
:10535000203F210101010000E01008080810E000D2
:105360000F18242438504F0008F888888888700067
:10537000203F2000030C3020007088080808380007
:105380000038202121221C00180808F808081800FD
:105390000000203F2000000008F808000008F8087E
:1053A000001F202020201F000878880000C838082F
:1053B000000007380E010000F80800F80008F800A7
:1053C000033C0700073C0300081868808068180841
:1053D00020302C03032C30200838C800C8380800BF
:1053E0000000203F2000000010080808C83808000E
:1053F0002038262120201800000000FE02020200B2
:105400000000007F40404000000C30C00000000061
:10541000000000010638C00000020202FE00000089
:10542000004040407F00000000000402020204002F
:10543000000000000000000000000000000000006C
:105440008080808080808080000202040000000054
:10545000000000000000000000008080808000004C
:105460000019242222223F2008F80080800000003A
:10547000003F112020110E000000008080800000FD
:10548000000E112020201100000000808088F8000C
:10549000000E112020103F2000008080808000003E
:1054A000001F222222221300008080F088888818A2
:1054B0000020203F202000000000808080808000AD
:1054C000006B94949493600008F800808080000042
:1054D000203F210000203F2000809898000000001D
:1054E0000020203F2020000000000080989800004D
:1054F00000C08080807F000008F80000808080006D
:10550000203F24022D302000000808F80000000091
:105510000020203F2020000080808080808080004C
:10552000203F20003F20003F8080008080800000DE
:10553000203F210000203F2000008080808000006C
:10554000001F202020201F0080800080800000009D
:1055500080FFA12020110E000000008080808000CC
:10556000000E112020A0FF808080800080808000BD
:1055700020203F21200001000000808080808000EA
:105580000033242424241900008080E0808000005F
:105590000000001F202000008080000000808000AC
:1055A000001F202020103F2080808000008080800D
:1055B00000010E300806010080800080008080809D
:1055C0000F300C030C300F000080800080808000C2
:1055D0000020312E0E3120008080800000808080ED
:1055E00080818E701806010000808080808080009D
:1055F0000021302C2221300000000000807C0202BB
:1056000000000000003F404000000000FF000000DC
:1056100000000000FF0000000002027C800000008B
:105620000040403F000000000006010102020404A7
:10563000000000000000000000000000000000006A
:10564000000000000000000000000000000000005A
:10565000000000000000000000000000000000004A
:10566000000000000000000000000000000000003A
:1056700000000000000000000000808080000000AA
:1056800000192424123F200010F000808000000048
:10569000003F112020110E000000008080800000DB
:1056A000000E112020201100000080808090F0006A
:1056B000001F202020103F200000808080800000FC
:1056C000001F242424241700008080E090902000F4
:1056D0000020203F2020000000008080808080008B
:1056E000006B94949493600010F000808080000020
:1056F000203F210000203F200080989800000000FB
:105700000020203F2020000000000080989800002A
:1057100000C08080807F000010F00000808080004A
:10572000203F240629302000001010F8000000005F
:105730000020203F2020000080808080808080002A
:10574000203F20003F20003F8080008080800000BC
:10575000203F210000203F2000008080808000004A
:10576000001F202020201F0080800080800000007B
:1057700080FF912020110E0000000080800080003A
:10578000000E11202091FF808080800080808000AA
:1057900020203F21200001000000808080808000C8
:1057A0000033242424241900008080E0808000003D
:1057B0000000001F2020100080800000008080007A
:1057C000001F202020103F208080800080808000EB
:1057D00000030C300C03000080800080800080807B
:1057E000010E300C073806010080808000808000A8
:1057F0000020310E2E3120008080800000808080CB
:1058000000818678180601000080808080808000FA
:105810000021302C2221300000001010F800000080
:10582000000020203F202000007008080808F00039
:105830000030282422213000003008080888700039
:105840000018202121221C000000804030F80000B8
:1058500000060524243F242400F8888888080800CE
:105860000019202020110E0000E010888890000010
:10587000000F112020201F00001808088868180059
:105880000000003E010000000070880808887000D9
:10589000001C222121221C0000F008080810E00052
:1058A0000001122222110F0000E010080810E00091
:1058B000000F102020100F0000000000000000006A
:1058C00000000000000000000000000000000000D8
:1058D00000000000000000000000000000000000C8
:1058E00000000000000000000000000000000000B8
:1058F00000000000000000000000000000000000A8
:105B7000000000000000000000000000C038040029
:105B80000060180700000000404080F080404000A6
:105B90000202010F010202000000000000000000EC
:105BA000000101010101010000000000E00000000F
:105BB000000101010F0101010080C0000000C000D0
:105BC000010307010101010000001010F8000000AE
:105BD000000020203F202000007008080808F00086
:105BE0000030282422213000003008080888700086
:105BF0000018202121221C000000804030F8000005
:105C000000060524243F242400F88888880808001A
:105C10000019202020110E0000E01088889000005C
:105C2000000F112020201F000018080888681800A5
:105C30000000003E01000000007088080888700025
:105C4000001C222121221C0000F008080810E0009E
:105C50000001122222110F0000E010080810E000DD
:105C6000000F102020100F000000000000000000B6
:105C7000003030000000000012010002000000406F
:105C8000875848500001010203010902290001015F
:105C900000C03209040000020301010009211001C3
:105CA0002101223D000705810308000A07050103C1
:105CB00001000A05010906A101050719E029E715F8
:105CC00000250195087501810295017508810395EC
:105CD00006750825FF1900296581002501950275C3
:105CE000010508190129029102950175069103C069
:105CF0000403090426035000680061006700650082
:105D000053007400640069006F0030000000000060
:105D100000000000000000000000280358004D00B3
:105D20003800370000000000000000000000000004
:105D30000000000000000000000000000000000063
:105D400000000000000000004C5555555555A53F7A
